:0C085600758920758DFD759850D28E229A
:080879008F993099FDC299220C
:070881003098FDC298AF9909
:01088800224D
:06082D008B088A09890A0C
:10083300E4FDFCAB08AA09A90A8D828C8312080087
:10084300FFFB3395E04B600A1208790DBD00010CE4
:0208530080E142
:010855002280
:0B086E0012085612088112087980F869
:0300000002086291
:0C086200787FE4F6D8FD75810A02086E6C
:10080000BB010CE58229F582E5833AF583E02250AD
:1008100006E92582F8E622BBFE06E92582F8E222F7
:0D082000E58229F582E5833AF583E4932211
:00000001FF
