:060000000A128A11382EDD
:100C2E0001300A128A114A260A128A110230F00085
:100C3E000030F1000A128A1196260A128A11080053
:100C4E007E088A007F08820027260A128A118000F9
:100C5E00840A04087D0603190034FF0A0319FE0AEC
:100C6E002B2E83136E30FD000630FE007030FF0019
:100C7E00483084000A128A112B260A128A11830127
:100C8E000A128A11232FF4008312031309108910FC
:100C9E0009157408880009110530F0000030F100C4
:100CAE000A128A1196260A128A110800F40083127B
:100CBE0003130914891009157408880009110530E9
:100CCE00F0000030F1000A128A1196260A128A11DB
:100CDE0008002034503449344334203444344534ED
:100CEE0056342E34203442344F344134523444344A
:100CFE00203400344C3443344434203444344534AA
:100D0E004D344F342034503452344F3447345234EF
:100D1E0041344D34003438340C3406340134C22E90
:100D2E000130F0020030031CF103F1020030F2003A
:100D3E000030F3007308803AFE0080307E02031DFF
:100D4E00AA2EDC307202031CAD2EAE2EAF2EC22E9A
:100D5E000130F2070318F30A0030F3077308803AE4
:100D6E00FE0080307E02031DBE2EDC307202031C9C
:100D7E00C12EC22EAF2E71087004031DC72EC82EB1
:100D8E00972E0800831203136D08F8006C08F70005
:100D9E006B08F6006A08F5000730831603139F00F0
:100DAE00890188013230F0000030F1000A128A11F8
:100DBE0096260A128A110030F9000030FA007A08DD
:100DCE00803AFE0080307E02031DEF2E0430790241
:100DDE00031CF22EF32EF42E192F7908753E840083
:100DEE0000080A128A114A260A128A110530F000EA
:100DFE000030F1000A128A1196260A128A11013069
:100E0E00F9070318FA0A0030FA077A08803AFE004A
:100E1E0080307E02031D152F04307902031C182F1B
:100E2E00192FF42EF430F0000130F1000A128A115D
:100E3E0096260A128A110800243084004830831244
:100E4E000313A0000408A1001130A20020088400A2
:100E5E0083130008A300A00A210884002308800041
:100E6E00A10AA20B2D2F353084005930A0000408A2
:100E7E00A1001130A2002008840083130008A300F3
:100E8E00A00A2108840023088000A10AA20B422F89
:100E9E00F430F0000130F1000A128A1196260A127F
:100EAE008A110A128A11C9260A128A11F430F00028
:100EBE000130F1000A128A1196260A128A110A12BC
:100ECE008A1117260A128A1180300A128A114A26AE
:100EDE000A128A11003083120313C6000030C700B5
:100EEE004708803AFE0080307E02031D802F1030AE
:100EFE004602031C832F842F852FAF2F83120313DB
:100F0E004608243E8400831300080A128A115D26C7
:100F1E000A128A113230F0000030F1000A128A11E2
:100F2E0096260A128A11013083120313C60703187C
:100F3E00C70A0030C7074708803AFE0080307E029D
:100F4E00031DAB2F10304602031CAE2FAF2F852F83
:100F5E00C0300A128A114A260A128A1100308312F0
:100F6E000313C6000030C7004708803AFE008030E9
:100F7E007E02031DC42F10304602031CC72FC82F3C
:100F8E00C92FF32F831203134608353E84008313B3
:100F9E0000080A128A115D260A128A113230F000F8
:100FAE000030F1000A128A1196260A128A110130B7
:100FBE0083120313C6070318C70A0030C707470872
:100FCE00803AFE0080307E02031DEF2F1030460265
:100FDE00031CF22FF32FC92FF430F0000130F10073
:100FEE000A128A1196260A128A11662F0A128A117D
:020FFE000028C9
:02400E00723FFF
:00000001FF
