:10092F000C0848656C6C6F20576F726C640009146B
:09093F00455344202D494F54009A
:070949001209077F0F7E0079
:10095000E4FDFCC3ED9FEC9E50070DBD00010C8033
:01096000F2A4
:010961002273
:1008DF00AB07EB54F0F580D280C281D2827F237EAA
:1008EF0000120950C282EBC454F0F580D280C2814D
:0808FF00D282120950C28222CC
:10090700AB07EB54F0F580C280C281D2827F237E91
:1009170000120950C282EBC454F0F580C280C28134
:08092700D282120950C28222A3
:10088C007F281209497F0C1209497F061209497FFA
:10089C00011209497F887E131209507F8012094981
:1008AC00E4FA74082AF8E6FF60061208DF0A80F200
:1008BC007F327E001209507FC0120949E4FA741489
:1008CC002AF8E6FF60061208DF0A80F27F327E000B
:0308DC00020950BE
:0F096200E4F58012088C7F0A7E0012095080FE97
:03000000020800F3
:0C080000787FE4F6D8FD75811C020847E3
:10080C00020962E493A3F8E493A34003F68001F297
:10081C0008DFF48029E493A3F85407240CC8C333ED
:10082C00C4540F4420C8834004F456800146F6DFBC
:10083C00E4800B010204081020408090092FE47E14
:10084C00019360BCA3FF543F30E509541FFEE493B1
:10085C00A360010ECF54C025E060A840B8E493A378
:10086C00FAE493A3F8E493A3C8C582C8CAC583CAA3
:10087C00F0A3C8C582C8CAC583CADFE9DEE780BE5B
:0109480000AE
:00000001FF
