:10089D004C616D70204F6E0046616E204F6E0046AC
:1008AD00616E204F66660063686F6F736520312C33
:0608BD00322C332C340044
:0C08C300758920758DFD759850D28E222D
:0808DB008F993099FDC29922AA
:0708E3003098FDC298AF99A7
:0108EA0022EB
:060874008B088A09890AC5
:10087A00E4FDFCAB08AA09A90A8D828C83120847F9
:10088A00FFFB3395E04B600A1208DB0DBD00010C3B
:02089A0080E1FB
:01089C002239
:100800001208C3E4F5801208E3AE07BE3104D280BB
:100810008005BE320AC2807BFF7A08799D8018BEAF
:10082000330AD2817BFF7A0879A5800BBE340DC2D2
:10083000817BFF7A0879AC12087480CA7BFF7A0842
:0708400079B412087480BFB7
:030000000208CF24
:0C08CF00787FE4F6D8FD75810A0208006D
:10084700BB010CE58229F582E5833AF583E0225066
:1008570006E92582F8E622BBFE06E92582F8E222B0
:0D086700E58229F582E5833AF583E49322CA
:00000001FF
