:100000000A128A11E72D00308A000408840A820748
:100010000034013400340A34003464340034E834E9
:10002000033410342734483465346C346C346F3402
:10003000203479346F34753420347034723465343C
:10004000733473346534643420345B34253463345E
:100050005D34203461346E34643420347434683454
:10006000653420346834653478342034763461342F
:100070006C34753465342034693473342034253459
:1000800064340A340D3400345434793470346534B3
:100090002034413420344B34653479343A340A34D2
:0E00A0000D3400341B345B3432344A340034E7
:100BCE00B40183010A128A11B02EF000EE2D8312A9
:100BDE0003130C1EF32DF42DEE2D70089900080052
:100BEE00232E0130F0020030031CF103F10200301D
:100BFE00F2000030F3007308803AFE0080307E026F
:100C0E00031D0B2EDC307202031C0E2E0F2E102E27
:100C1E00232E0130F2070318F30A0030F30773088E
:100C2E00803AFE0080307E02031D1F2EDC307202E1
:100C3E00031C222E232E102E71087004031D282E45
:100C4E00292EF82D08007908780403192F2E302E3E
:100C5E00602EFD010314FD0D3F2E01300310F80D23
:100C6E00F90DFF3E031D352E0130FC007C08FD07FB
:100C7E00F91F422E432E342E79087B02031D492E76
:100C8E0078087A02031C4C2E4D2E532E7808FA0249
:100C9E007908031CFB03FB0201300310F90CF80C5E
:100CAE00FF3E031D542E0130FD02031D5F2E602EEC
:100CBE00432E7B08F901F9077A08F801F8070800B6
:100CCE000030F5000030F600710870040319702E24
:100CDE00712EA92EF7010314F70D802E013003108B
:100CEE00F00DF10DFF3E031D762E0130F400740859
:100CFE00F707F11F832E842E752E01300310F50D8C
:100D0E00F60DFF3E031D852E71087302031D912EF5
:100D1E0070087202031C942E952E9C2E7008F202FF
:100D2E007108031CF303F302751401300310F10C68
:100D3E00F00CFF3E031D9D2E0130F702031DA82E61
:100D4E00A92E842E7608F101F1077508F001F0073F
:100D5E0008003230F0000030F1000A128A11F72537
:100D6E000A128A11C03083160313870024309800AC
:100D7E004030990090308312031398000C166430A3
:100D8E00F0000030F1000A128A11F7250A128A11BA
:100D9E004A300A128A11FD260A128A113C300A12B2
:100DAE008A11FD260A128A11831203138C1EE02E5D
:100DBE00E12EF92E1A08B0003008B4003408B00045
:100DCE00B1013008A0003108A1003408B200B3010F
:100DDE003208A2003308A3000B300A128A11FD2636
:100DEE000A128A11DB2E0A128A11002883120313AB
:100DFE00A8002030A4002408AA00EB2F2F08253AC3
:100E0E0003190A2F0B2F122F2F080A128A11EC2505
:100E1E000A128A11EB2F03100030031801308312CF
:100E2E000313A7002F2FFF2F4B2F2A0884008313A5
:100E3E000008A4002408AF000230A4002408AA076A
:100E4E002F080A128A11EC250A128A11EB2F4B2F4A
:100E5E000001013883120313A8070001FF38280789
:100E6E0084000A128A1103200A128A11AF00003A76
:100E7E0003191A2F633A03191C2F073A03191B2F54
:100E8E000D3A03191B2F272F2A08840083130008FD
:100E9E00AB00840A0008AC000230A4002408AA07A4
:100EAE00AC1F5A2F5B2F642F0330A4002408A70415
:100EBE00AB09AC09AB0A0319AC0AAF010314AF0DB1
:100ECE002F08053A031D6C2F6D2F6E2F942F2F08B0
:100EDE00A4002407013E84000A128A1103200A127C
:100EEE008A11A5000A128A1103200A128A11A6007D
:100EFE0026082C02031D852F25082B020318882F88
:100F0E00892F8A2F942F0130A4002408AF072F08B1
:100F1E00053A031D932F942F6E2F270803390319BB
:100F2E00992F9A2FA02F2D300A128A11EC250A1212
:100F3E008A11831203132F08A4002408A900DF2F9F
:100F4E000A30F8000030F9002908A4002407013EF9
:100F5E0084000A128A1103200A128A11F0000A1262
:100F6E008A1103200A128A11F1002C08F301F307EB
:100F7E002B08F201F2070A128A1167260A128A1149
:100F8E007108FB01FB077008FA01FA070A128A11B1
:100F9E002A260A128A117808303E83120313A500FE
:100FAE002508AF002F080A128A11EC250A128A11A1
:100FBE00FF3083120313A4002408A9072908FF3A5F
:100FCE00031DEA2FEB2FA72F00010138A807000100
:100FDE00FF38280784000A128A1103200A128A1188
:100FEE00A4002408AF00AF08031DFE2FFF2F052F0E
:020FFE000800E9
:02400E00723FFF
:00000001FF
