:060000000A128A11912F83
:100F220083010A128A11952F0730831603139F003B
:100F3200850186018701880189019F2F3F30831235
:100F420003138500FF308600FF308700FF308800E2
:100F520007308900F430F0000130F1000A128A11E2
:100F6200C9270A128A118312031385018601870198
:100F720088018901F430F0000130F1000A128A116F
:100F8200C9270A128A119F2F9F2F0A128A1100283D
:100F9200F82F0130F0020030031CF103F10200309F
:100FA200F2000030F3007308803AFF0080307F02C5
:100FB200031DDD2FDC307202031CE02FE12FE32F33
:100FC200F82FF82F0130F2070318F30A0030F30765
:100FD2007308803AFF0080307F02031DF22FDC305D
:100FE2007202031CF52FF62FE32FF82FF82F71084A
:0E0FF2007004031DFD2FFE2FCA2FFF2F0800D5
:02400E00723FFF
:00000001FF
