:030D600025630008
:100BEA00120D2D7F0C120CDE7F057E00120D05E41E
:100BFA00FFFE120D587F50120CBD7F41120CBD7FB3
:100C0A004E120CBD7F54120CBD120D457F0A7E0098
:100C1A00120D05E4FFFE120D50C200120C6F8F2256
:100C2A00C200120C6F8F23C200120C6F8F24C200F5
:100C3A00120C6F8F25E4F508F5097BFF7A0D7960B0
:100C4A0074222509F8E6F50D1208627F647E001207
:100C5A000D050509E50970020508C39404E5089421
:050C6A000040D780FEF0
:0C0D2D00759852758920758DFDD28E22BC
:0F0D1E00D2A1D2A00000C2A10000C2A0000022FA
:0B0D4500C2A10000D2A00000D2A12239
:0E0CAF00AD07AC06120D1E7FA0120CBDAF04E7
:100CBD00E4FBFAEF3392A1D2A0C2A0EF25E0FF0B27
:100CCD00BB00010AEB64084A70E9D2A00000C2A083
:010CDD0022F4
:100C6F00120D1E7FA1120CBDD2A1E4FFFED2A0E592
:100C7F002725E0F527A2A1E4334227C2A0000FBF2A
:100C8F0000010EEF64084E70E4300004C2A1800230
:0F0C9F00D2A10000D2A00000C2A0120D45AF27C5
:010CAE002223
:080D5000120CAFAF05020CBD4F
:080D5800120CAFAF05020CBD47
:100D0500EF4E60147D6E7C00ED1D70011CED4C7086
:080D1500F7EF1F70EB1E80E8F0
:010D1D0022B3
:03000000020D39B5
:0C0D3900787FE4F6D8FD758127020BEAF4
:100CDE00EFB40A07740D120CE9740A309811A89932
:100CEE00B8130CC2983098FDA899C298B811F63076
:070CFE0099FDC299F599224E
:10080000E519240DF8E6051922780A300702780D5B
:10081000E475F001120BB4020B5C2000EB7F2ED2CA
:10082000008018EF540F2490D43440D4FF30040BD0
:10083000EF24BFB41A0050032461FFE51A600215CB
:100840001A051DE51D7002051C30070D780AE475B8
:10085000F001120BB4EF020BA2020CDE7403D207FC
:100860008003E4C207F5198B0A8A0B890CE4F51A98
:10087000F51CF51DE51A60077F2012083B80F57511
:100880001BFFC201C200C202C203C205C206C208E7
:10089000120809FF700D3007057F0012084CAF1DCC
:1008A000AE1C22B4255FC2D5C204120809FF24D0B1
:1008B000B40A00501A75F00A781A30D50508B6FF48
:1008C0000106C6A426F620D5047002D20380D924DE
:1008D000CFB41A00EF5004C2E5D204020A4CD20190
:1008E00080C6D20080C0D20280BCD2D580BAD205E8
:1008F00080B47F2012083B2002077401B51A004023
:10090000F1120800FF12083B020874D208D20680D8
:1009100095120800FB120800FA120800F94A4B7001
:1009200006791D7A0B7BFF20022EE51A602A7E00D5
:100930008E82758300120B7560060EEE651B70F0DB
:10094000C2D5EBC0E0EAC0E0E9C0E0EE120A93D005
:10095000E0F9D0E0FAD0E0FB120B5CFF60AAEBC03C
:10096000E0EAC0E0E9C0E012083BD0E02401F9D0A1
:10097000E03400FAD0E0FBE51B0460DCD51BD98035
:10098000877BFF7A0A798FD202809C791080027966
:1009900008C206C2088008D2D5790A8004790AC242
:1009A000D5E51B047002F51BE4FAFDFEFF120800FA
:1009B000FC7B08200113120800FD7B1030000A1296
:1009C0000800FE120800FF7B20EC3382D592D55040
:1009D00013C3E43000069FFFE49EFEE42001039D64
:1009E000FDE49CFCE4CBF8C201EC700CCFCECDCC86
:1009F000E824F8F870F38017C3EF33FFEE33FEED11
:100A000033FDEC33FCEB33FB994002FB0FD8E9EBF1
:100A1000300105F8D0E0C448B201C0E00AEC4D4E08
:100A20004F78207B0070C2EAB51B0040BCC0E012CA
:100A30000A95D0F0D0E0200104C4C0E0C4B201C0E7
:100A4000F0120824D0F0D5F0EB020874120BC409A0
:100A50001153098B5808E24C08DE42098F4F099761
:0F0A60004409974908F743099D550981460981C3
:100A6F00450981470B3D5008E62D08EA2E090D2B4D
:100A7F0008EE23090B200B262A08A64800000905BB
:100A8F003F3F3F00790AA2D5200314300509B91062
:100A9F00020404B9080104A2D52006025001042063
:100AAF0002689202B51A005034C0E07F203003195B
:100ABF007F30A20272067205500F120AECC202C2F8
:100ACF0006C205C2087F30800F300503E9C0E0126F
:100ADF00083B300503D0E0F9D0E0B51ACC3005174C
:100AEF007F30B9100C12083B7F583004077F788095
:100AFF0003B9080312083B3002057F2D02083B7F24
:100B0F00202008F87F2B2006F322920280CF286E38
:100B1F00756C6C2900D2011208003001F8C20178FF
:100B2F001A30D50108F60208A62D5043495812086D
:100B3F00002403B405004001E4900B389312082CF5
:0D0B4F00743A12082CD203751A0402098BA7
:100B5C00BB010689828A83E0225002E722BBFE0297
:090B6C00E32289828A83E49322CA
:100B7500BB010CE58229F582E5833AF583E0225035
:100B850006E92582F8E622BBFE06E92582F8E2227F
:0D0B9500E58229F582E5833AF583E4932299
:100BA200BB010689828A83F0225002F722BBFE0132
:020BB200F3222C
:100BB400FAE6FB0808E6F925F0F618E6CA3AF62242
:100BC400D083D082F8E4937012740193700DA3A3C0
:100BD40093F8740193F5828883E4737402936860D4
:060BE400EFA3A3A380DFD4
:00000001FF
