:1008560048656C6C6F20576F726C642121200A0DFD
:010866000091
:0C087500758920758DFD759850D28E227B
:08088D008F993099FDC29922F8
:06082D008B088A09890A0C
:10083300E4FDFCAB08AA09A90A8D828C8312080087
:10084300FFFB3395E04B600A12088D0DBD00010CD0
:0208530080E142
:010855002280
:0E0867001208757BFF7A08795612082D80F56D
:0300000002088172
:0C088100787FE4F6D8FD75810A02086754
:10080000BB010CE58229F582E5833AF583E02250AD
:1008100006E92582F8E622BBFE06E92582F8E222F7
:0D082000E58229F582E5833AF583E4932211
:00000001FF
