:100000000A128A11ED2E00308A000408840A820741
:1000100000340A340D34093435343A34203452343F
:1000200065346C3461347934323420344F344E3496
:10003000203420340A340D34093436343A34203430
:10004000523465346C3461347934323420344F3472
:10005000463446340A340D340A3400345034723491
:10006000653473347334203431343A3420344234B8
:1000700075347A347A346534723420344F344E34E3
:10008000203420340A340D34093432343A342034E4
:10009000423475347A347A346534723420344F34CF
:1000A0004634463400340A340D34093433343A3497
:1000B0002034523465346C34613479343134203432
:1000C0004F344E34203420340A340D34093434345F
:1000D0003A342034523465346C34613479343134F8
:1000E00020344F344634463400341B345B343234CD
:0C00F0004A3400342034253463340034DA
:100DDA0083010A128A11922FF000F32E8312031351
:100DEA000C1EF82EF92EF32E700899000800C03058
:100DFA0083160313870024309800403099009030FE
:100E0A008312031398000C160800362F0130F002E3
:100E1A000030031CF103F1020030F2000030F3004D
:100E2A007308803AFE0080307E02031D1E2FDC30DC
:100E3A007202031C212F222F232F362F0130F20793
:100E4A000318F30A0030F3077308803AFE00803073
:100E5A007E02031D322FDC307202031C352F362F1F
:100E6A00232F71087004031D3B2F3C2F0B2F080002
:100E7A00F6007130F3007308F5007D2F7708253AE4
:100E8A000319482F492F502F77080A128A11F12681
:100E9A000A128A117D2F0310003003180130F40062
:100EAA00692F912F750884000008F3007308F70072
:100EBA000230F3007308F50777080A128A11F1263F
:100ECA000A128A117D2F7D2F00010138F6070001D1
:100EDA00FF38760784000A128A1103200A128A113F
:100EEA00F700003A0319562F633A0319572F612F57
:100EFA0000010138F6070001FF38760784000A125C
:100F0A008A1103200A128A11F3007308F700F708FE
:100F1A00031D902F912F432F080083160313860178
:100F2A0004308312031386000A128A11FC260A125D
:100F3A008A116D300A128A113D270A128A11143059
:100F4A00F0000030F1000A128A110A270A128A11E7
:100F5A0026300A128A113D270A128A114B300A12C8
:100F6A008A113D270A128A1101300A128A113D2775
:100F7A000A128A11C02F831203138C1EC52FC62F83
:100F8A00C02F8C121A08F8007808FA007A08F800BC
:100F9A00F9017808F1007908F20072300A128A1110
:100FAA003D270A128A11E82F831203130614FC2F15
:100FBA000610FC2F8614FC2F8610FC2F0615FC2F1A
:100FCA000611FC2FFC2F7A08313A0319D92F033A5C
:100FDA000319DD2F013A0319DF2F073A0319E12F0D
:100FEA00013A0319E32F033A0319E52FFC2FBF2F08
:060FFA000A128A11002812
:02400E00723FFF
:00000001FF
