:020000040000FA
:100000007004001081010000890100008B010000D4
:100010008D0100008F010000910100009EF3FFEFB1
:10002000000000000000000000000000930100003C
:1000300095010000000000009701000099010000F8
:100040009B0100009B0100009B0100009B01000040
:100050009B0100009B0100009B0100009B01000030
:100060009B0100009B0100009B0100009B01000020
:100070009B010000000000009B0100009B010000AC
:100080009B0100009B0100009B0100009B01000000
:100090009B0100009B0100009B0100009B010000F0
:1000A0009B0100009B0100009B0100009B010000E0
:1000B0009B0100009B0100009B0100009B010000D0
:1000C0009B0100009B0100009B0100009B010000C0
:1000D0009B0100009B0100009B0100009B010000B0
:1000E0009B01000000F002F800F03AF80AA090E846
:1000F000000C82448344AAF10107DA4501D100F0E3
:100100002FF8AFF2090EBAE80F0013F0010F18BF75
:10011000FB1A43F001031847B4010000D4010000AA
:10012000103A24BF78C878C1FAD8520724BF30C823
:1001300030C144BF04680C607047000000230024F5
:1001400000250026103A28BF78C1FBD8520728BFE7
:1001500030C148BF0B6070471FB51FBD10B510BD43
:1001600000F07DF81146FFF7F7FF00F034F800F0DB
:100170009BF803B4FFF7F2FF03BC00F09FF8000008
:100180000948804709480047FEE7FEE7FEE7FEE72B
:10019000FEE7FEE7FEE7FEE7FEE7FEE70448054967
:1001A000034A054B7047000099050000E500000078
:1001B000700000107004001070000010002107E0B3
:1001C000002200E0521C46F623039A42FADB491C47
:1001D0008142F5DB70471B48006840F400401A4933
:1001E000C1F8C4004FF000001849086001F1040193
:1001F000086001F10401086001F10401086001F1E7
:100200000401086001F10401086001F104010860C3
:1002100001F1040108604FF0FF000D4908600FE094
:10022000FF200C4908604FF4FA70FFF7C7FF002069
:1002300007498039C1F894004FF4FA70FFF7BEFF08
:10024000EEE70000C4C00F4000C00F4000C20240F3
:100250008080092094800920704770477047754658
:1002600000F028F8AE4605006946534620F0070026
:10027000854618B020B5FFF791FFBDE820404FF04C
:1002800000064FF000074FF000084FF0000B21F080
:100290000701AC46ACE8C009ACE8C009ACE8C0094D
:1002A000ACE8C0098D4670470446AFF30080204695
:1002B000FFF75FFF00487047100000100149182049
:1002C000ABBEFEE72600020070470000C406000037
:1002D000000000101000000020010000D406000003
:1002E00010000010600400003C010000000000004D
:1002F000000000000000000000000000FFFFFFFF02
:1003000030B5D948006810F4807F6BD1D7480068B9
:1003100010F0010F2CD1D448006810F01F0F01D14C
:10032000002006E0D048006800F01F00D049B1FB73
:10033000F0F0D0490860D048006810F01F0F01D1DC
:10034000002006E0CC48006800F01F00C849B1FB5F
:10035000F0F0CA490860CA48006800F0010000F1E6
:100360000100C4490968B1FBF0F0C6490860B6E075
:10037000C548006810F0400F07D10020BD49086053
:10038000BE490860BF490860A9E0B748006810F09E
:100390001F0F01D1002006E0B348006800F01F00E5
:1003A000B349B1FBF0F0B3490860B348006810F0FE
:1003B0001F0F01D1002006E0AF48006800F01F00C9
:1003C000AB49B1FBF0F0AD490860AD48006800F002
:1003D000010000F10100A7490968B1FBF0F0A9494B
:1003E00008607CE0A948006810F4807F07D10020F5
:1003F000A0490860A1490860A24908606FE09B48D5
:10040000006810F0010F2ED1A04C246804F01F04E6
:1004100004F101009E4CD4F8044104F01F01964CF5
:10042000246804F01F029A4CD4F8004104F001043F
:1004300004F1010309B9002403E08D4C4443B4FBEB
:10044000F1F48C4D2C600AB9002403E0884C44433D
:10045000B4FBF2F4894D2C60864C2468B4FBF3F4B1
:10046000884D2C603BE08848006810F0400F07D1B1
:1004700000208049086081490860824908602EE0B8
:10048000824C246804F01F0404F10100804CD4F86D
:10049000044104F01F01784C246804F01F027C4CD6
:1004A000D4F8004104F0010404F1010309B9002467
:1004B00003E06F4C4443B4FBF1F46E4D2C600AB979
:1004C000002403E06A4C4443B4FBF2F46B4D2C600F
:1004D000684C2468B4FBF3F46A4D2C6000BF6D488F
:1004E000006810F4807F31D06A48006810F01F0067
:1004F00004D0042806D0062823D104E00020664951
:10050000086022E000BF614A126802F01F0202F197
:1005100001005F4AD2F8082102F01F01534A126815
:1005200012F0010F06D0524A4243B2FBF1F25A4B8D
:100530001A6005E04E4A4243B2FBF1F2564B1A6094
:1005400003E000205449086000BF24E051480068DF
:1005500010F4007F1CD04548006810F0010F0BD04C
:100560004E48006800F01F0000F10100404900FB08
:1005700001F0494908600EE04448006800F01F009F
:1005800000F101003A4900FB01F04349086002E034
:1005900000204149086030BD00B520203A4908607C
:1005A00000BF3948006810F0400FFAD001202F49F1
:1005B00008604FF009003649C1F884004FF001008F
:1005C000374908604FF0AA00364908604FF05500DF
:1005D000086000BF2D48006810F4806FFAD0232017
:1005E000314908604FF001002949C1F8A0004FF0DF
:1005F000AA002E4908604FF055002549C1F8AC000B
:1006000000BF2648006810F4806FFAD040F2011055
:100610001549086040F201201D49C1F808014FF05A
:100620000100174908604FF0020021490860124993
:1006300008602048204908604FF480701449C1F8D0
:10064000C8010846D0F8B00140F003001B4908601B
:1006500045F23A000E4908604FF000001849086062
:10066000FFF74EFE00BD000004C10F400CC10F405B
:10067000001BB70000000010A8C10F4004000010CC
:1006800000C10F4008000010A0C10F4088C00F40FB
:1006900000C00F4008C10F400C000010A8C00F4060
:1006A00080C00F408CC00F40A4C00F40ACC00F40B2
:1006B000B4C10F40DE872804C4C00F40B0C10F4052
:1006C00008ED00E0000E27070087930300879303DF
:0406D000006CDC02DC
:04000005000000E512
:00000001FF
