:020000040000FA
:100000008804001081010000890100008B010000BC
:100010008D0100008F010000910100009EF3FFEFB1
:10002000000000000000000000000000930100003C
:1000300095010000000000009701000099010000F8
:100040009B0100009B0100009B0100009B01000040
:100050009B0100009B0100009B0100009B01000030
:100060009B0100009B0100009B0100009B01000020
:100070009B010000000000009B0100009B010000AC
:100080009B0100009B0100009B0100009B01000000
:100090009B0100009B0100009B0100009B010000F0
:1000A0009B0100009B0100009B0100009B010000E0
:1000B0009B0100009B0100009B0100009B010000D0
:1000C0009B0100009B0100009B0100009B010000C0
:1000D0009B0100009B0100009B0100009B010000B0
:1000E0009B01000000F002F800F03AF80AA090E846
:1000F000000C82448344AAF10107DA4501D100F0E3
:100100002FF8AFF2090EBAE80F0013F0010F18BF75
:10011000FB1A43F001031847C8070000E807000076
:10012000103A24BF78C878C1FAD8520724BF30C823
:1001300030C144BF04680C607047000000230024F5
:1001400000250026103A28BF78C1FBD8520728BFE7
:1001500030C148BF0B6070471FB51FBD10B510BD43
:1001600000F02FF81146FFF7F7FF00F0A5FB00F0B5
:100170004DF803B4FFF7F2FF03BC00F055F80000A0
:100180000948804709480047FEE7FEE7FEE7FEE72B
:10019000FEE7FEE7FEE7FEE7FEE7FEE70448054967
:1001A000034A054B70470000D5050000E50000003C
:1001B0008800001088040010880000107047704705
:1001C0007047754600F02CF8AE4605006946534668
:1001D00020F00700854618B020B5FFF7DFFFBDE827
:1001E00020404FF000064FF000074FF000084FF09E
:1001F000000B21F00701AC46ACE8C009ACE8C0092F
:10020000ACE8C009ACE8C0098D46704710B504469B
:10021000AFF300802046BDE81040FFF7AABF000002
:10022000004870472400001001491820ABBEFEE7CB
:10023000260002007047000000BF0448007D00F067
:1002400001000028F9D001480078704700C0004044
:1002500000BF0449097D01F020010029F9D00149BE
:100260000870704700C0004000B5024603E012F875
:10027000010BFFF7EDFF10780028F8D100BD00005A
:100280000949096842F21072B1FBF2F1484305E0F6
:1002900000BF00BF00BF00BF00BF00BF011EA0F134
:1002A0000100F5D170470000140000100E480068EE
:1002B00040F008000C49C439C1F8C4000B488068FC
:1002C00040F00100094988600846C06840F001001C
:1002D000C860832006490873C32008700020087195
:1002E0000320087370470000C4C00F4000C00240E4
:1002F00000C000400000000000000000FFFFFFFF02
:1003000030B5AD48006800F48070002872D1AA486A
:100310000830006800F0010070BBA748006800F0DA
:100320001F0008B9002006E0A348006800F01F0085
:10033000A249B1FBF0F0A24908609F48A4300068D0
:1003400000F01F0008B9002007E09B48A4300068B7
:1003500000F01F009949B1FBF0F09A4908609648F7
:10036000001F006800F00100401C95490968B1FBBE
:10037000F0F095490860BEE08F489C30006800F0BE
:10038000400038B900208E4908608E4908608E49C7
:100390000860B0E08848006800F01F0008B900203D
:1003A00006E08548006800F01F008449B1FBF0F0CA
:1003B000834908608048A430006800F01F0008B935
:1003C000002007E07C48A430006800F01F007B4953
:1003D000B1FBF0F07B4908607748001F006800F02F
:1003E0000100401C76490968B1FBF0F076490860CD
:1003F00081E0FFE770487C38006800F4807038B90D
:1004000000206F4908606F4908606F49086072E01A
:1004100069480830006800F0010070BB664C7C3C05
:10042000246804F01F04601C684CD4F8044104F0F4
:100430001F01614CA434246804F01F02634CD4F8FB
:10044000004104F00104631C09B9002403E05B4C83
:100450004443B4FBF1F45A4D2C600AB9002403E084
:10046000564C4443B4FBF2F4564D2C60544C246873
:10047000B4FBF3F4544D2C603DE0FFE74E489C3054
:10048000006800F0400038B900204D4908604D492F
:1004900008604D4908602EE0474C7C3C246804F01D
:1004A0001F04601C494CD4F8044104F01F01424C65
:1004B000A434246804F01F02444CD4F8004104F032
:1004C0000104631C09B9002403E03C4C4443B4FB21
:1004D000F1F43B4D2C600AB9002403E0374C44434F
:1004E000B4FBF2F4374D2C60354C2468B4FBF3F4C4
:1004F000354D2C6000BF3048001D006800F480704E
:1005000098B32D48001D006800F01F0020B104289A
:1005100006D0062824D104E000202D49086023E0FD
:1005200000BF254A7C3A126802F01F02501C274A7D
:10053000D2F8082102F01F011F4A0832126802F0A7
:10054000010232B11D4A4243B2FBF1F2204B1A6064
:1005500005E01A4A4243B2FBF1F21D4B1A6003E078
:1005600000201B49086000BF25E0FFE71248001D7E
:10057000006800F40070D8B10F480830006800F03F
:10058000010050B10C485C38006800F01F00401CAE
:100590000A4948430E4908600DE007487C38006866
:1005A00000F01F00401C054948430949086002E06B
:1005B00000200749086030BD04C10F40001BB70090
:1005C00014000010180000101C00001000C00F40A4
:1005D0002000001010B520203549086000BF3448C5
:1005E000006800F040000028F9D00120304994391B
:1005F000086009202F49C1F8840001202D4980316D
:100600000860AA202B498C3108605520086000BF83
:1006100028488830006800F480600028F8D0232043
:100620002449A431086001202249C1F8A000AA2071
:100630002049AC31086055201E49C1F8AC0000BF0C
:100640001C48A830006800F480600028F8D040F210
:10065000011017499C39086040F201201549C1F882
:10066000080101201249A039086002201049143104
:1006700008600F49083108600F480E49C43108600E
:1006800088150C49C1F8C8010846D0F8B00140F0FF
:10069000030007491031086045F23A000549086037
:1006A000002006490860FFF72BFE00F009F810BD96
:1006B000A0C10F4000C00F40DE87280408ED00E015
:1006C00010B50120734908607349C1F8840171496C
:1006D00008310860091D0860091D0860091D0860CF
:1006E000091D0860091D0860091D0860091D0860D2
:1006F000091D0860091D0860091D0860091D0860C2
:10070000091D0860091D0860091D0860091D0860B1
:10071000091D0860091D0860091D0860091D0860A1
:10072000091D0860091D0860091D0860091D086091
:10073000091D0860091D0860091D0860091D086081
:10074000091D0860091D0860091D0860091D086071
:10075000091D0860091D0860091D0860091D086061
:10076000091D0860091D0860091D0860091D086051
:10077000091D0860091D0860091D0860091D086041
:10078000091D0860091D0860091D0860091D086031
:10079000091D0860091D0860091D0860091D086021
:1007A000091D0860091D08603C490860091D0860B2
:1007B0003A491C39086037493839086035494039A9
:1007C0000860091D0860334910390860091D086078
:1007D000091D0860091D08602E49303908602E493E
:1007E000C1F860012E48006841F2111108432D49FB
:1007F000C1F8DC010846D0F8C40040F40060294983
:10080000C431086001202849086000208860232046
:1008100048620120886208630320486305208863DA
:100820000220C8630320086401204864042088640F
:10083000C864052008650120486588654FF4894033
:100840001A49086040F202201749C1F804016420E7
:10085000FFF716FD40F2831013490862C820FFF726
:100860000FFD40F203101049086202204862002484
:1008700000E0641C802CFCD33A200B4948628320A2
:1008800008620B4800680B480849086000200649C8
:10089000086210BD80C1024000C0024080C2024018
:1008A000DCC10F4000C00F4000C0092000C109207A
:1008B000004004A080440800FFF7F8FC0648FFF75A
:1008C000D3FC07E0FFF7B8FC04490870084600783D
:1008D000FFF7BEFCF6E7000001000010000000106A
:1008E00000090000000000102400000020010000AA
:1008F0002409000024000010640400003C010000F2
:100900000048693A2050726573732061204B657905
:100910000D0A0000000E270700879303008793034A
:04092000006CDC0289
:04000005000000E512
:00000001FF
