:03000000020CB936
:0C0CB900787FE4F6D8FD758121020C88DC
:0F0CAA0043682030203A2025346420200A0D00B2
:0C0CC500759852758920758DFDD28E2225
:100BEA00C2A4050CC2A5050C050CEF60047EA0800A
:100BFA00027ED0AF06050C050CE4FDEDC394047427
:100C0A008094805013EF3392A7EF25E0FFD2A50519
:100C1A000C050CC2A50D80E3050C050CD2A5050C2C
:100C2A00050CC2A5050C050CE4FFFEFDEDC3940CF2
:100C3A0074809480501ED2A5050C050CEF25E0FFA8
:100C4A00EE33FEA2A6E433FBEB4207C2A5050C0570
:060C5A000C0D80D8D2A4AD
:010C60002271
:100C8800120CC57F0C120C61E4FF120BEA8E088F60
:100C9800097BFF7A0C79AA85080F8509101208626A
:020CA80080E6E4
:100C6100EFB40A07740D120C6C740A309811A8992C
:100C7100B8130CC2983098FDA899C298B811F630F3
:070C810099FDC299F59922CB
:10080000E51B240FF8E6051B22780C300702780F51
:10081000E475F001120BB4020B5C2000EB7F2ED2CA
:10082000008018EF540F2490D43440D4FF30040BD0
:10083000EF24BFB41A0050032461FFE51C600215C9
:100840001C051FE51F7002051E30070D780CE475AE
:10085000F001120BB4EF020BA2020C617403D20779
:100860008003E4C207F51B8B0C8A0D890EE4F51C8E
:10087000F51EF51FE51C60077F2012083B80F5750B
:100880001DFFC201C200C202C203C205C206C208E5
:10089000120809FF700D3007057F0012084CAF1FCA
:1008A000AE1E22B4255FC2D5C204120809FF24D0AF
:1008B000B40A00501A75F00A781C30D50508B6FF46
:1008C0000106C6A426F620D5047002D20380D924DE
:1008D000CFB41A00EF5004C2E5D204020A4CD20190
:1008E00080C6D20080C0D20280BCD2D580BAD205E8
:1008F00080B47F2012083B2002077401B51C004021
:10090000F1120800FF12083B020874D208D20680D8
:1009100095120800FB120800FA120800F94A4B7001
:1009200006791D7A0B7BFF20022EE51C602A7E00D3
:100930008E82758300120B7560060EEE651D70F0D9
:10094000C2D5EBC0E0EAC0E0E9C0E0EE120A93D005
:10095000E0F9D0E0FAD0E0FB120B5CFF60AAEBC03C
:10096000E0EAC0E0E9C0E012083BD0E02401F9D0A1
:10097000E03400FAD0E0FBE51D0460DCD51DD98031
:10098000877BFF7A0A798FD202809C791080027966
:1009900008C206C2088008D2D5790A8004790AC242
:1009A000D5E51D047002F51DE4FAFDFEFF120800F6
:1009B000FC7B08200113120800FD7B1030000A1296
:1009C0000800FE120800FF7B20EC3382D592D55040
:1009D00013C3E43000069FFFE49EFEE42001039D64
:1009E000FDE49CFCE4CBF8C201EC700CCFCECDCC86
:1009F000E824F8F870F38017C3EF33FFEE33FEED11
:100A000033FDEC33FCEB33FB994002FB0FD8E9EBF1
:100A1000300105F8D0E0C448B201C0E00AEC4D4E08
:100A20004F78207B0070C2EAB51D0040BCC0E012C8
:100A30000A95D0F0D0E0200104C4C0E0C4B201C0E7
:100A4000F0120824D0F0D5F0EB020874120BC409A0
:100A50001153098B5808E24C08DE42098F4F099761
:0F0A60004409974908F743099D550981460981C3
:100A6F00450981470B3D5008E62D08EA2E090D2B4D
:100A7F0008EE23090B200B262A08A64800000905BB
:100A8F003F3F3F00790AA2D5200314300509B91062
:100A9F00020404B9080104A2D52006025001042063
:100AAF0002689202B51C005034C0E07F2030031959
:100ABF007F30A20272067205500F120AECC202C2F8
:100ACF0006C205C2087F30800F300503E9C0E0126F
:100ADF00083B300503D0E0F9D0E0B51CCC3005174A
:100AEF007F30B9100C12083B7F583004077F788095
:100AFF0003B9080312083B3002057F2D02083B7F24
:100B0F00202008F87F2B2006F322920280CF286E38
:100B1F00756C6C2900D2011208003001F8C20178FF
:100B2F001C30D50108F60208A62D5043495812086B
:100B3F00002403B405004001E4900B389312082CF5
:0D0B4F00743A12082CD203751C0402098BA5
:100B5C00BB010689828A83E0225002E722BBFE0297
:090B6C00E32289828A83E49322CA
:100B7500BB010CE58229F582E5833AF583E0225035
:100B850006E92582F8E622BBFE06E92582F8E2227F
:0D0B9500E58229F582E5833AF583E4932299
:100BA200BB010689828A83F0225002F722BBFE0132
:020BB200F3222C
:100BB400FAE6FB0808E6F925F0F618E6CA3AF62242
:100BC400D083D082F8E4937012740193700DA3A3C0
:100BD40093F8740193F5828883E4737402936860D4
:060BE400EFA3A3A380DFD4
:00000001FF
