:020000040000FA
:10000000A804001081010000890100008B0100009C
:100010008D0100008F010000910100009EF3FFEFB1
:10002000000000000000000000000000930100003C
:1000300095010000000000009701000099010000F8
:100040009B0100009B0100009B0100009B01000040
:100050009B0100009B0100009B0100009B01000030
:100060009B0100009B0100009B0100009B01000020
:100070009B010000000000009B0100009B010000AC
:100080009B0100009B0100009B0100009B01000000
:100090009B0100009B0100009B0100009B010000F0
:1000A0009B0100009B0100009B0100009B010000E0
:1000B0009B0100009B0100009B0100009B010000D0
:1000C0009B0100009B0100009B0100009B010000C0
:1000D0009B0100009B0100009B0100009B010000B0
:1000E0009B01000000F002F800F03AF80AA090E846
:1000F000000C82448344AAF10107DA4501D100F0E3
:100100002FF8AFF2090EBAE80F0013F0010F18BF75
:10011000FB1A43F001031847500A0000700A000060
:10012000103A24BF78C878C1FAD8520724BF30C823
:1001300030C144BF04680C607047000000230024F5
:1001400000250026103A28BF78C1FBD8520728BFE7
:1001500030C148BF0B6070471FB51FBD10B510BD43
:1001600000F02FF81146FFF7F7FF00F09BFA00F0C0
:100170004DF803B4FFF7F2FF03BC00F055F80000A0
:100180000948804709480047FEE7FEE7FEE7FEE72B
:10019000FEE7FEE7FEE7FEE7FEE7FEE70448054967
:1001A000034A054B7047000069050000E5000000A8
:1001B000A8000010A8040010A800001070477047A5
:1001C0007047754600F02CF8AE4605006946534668
:1001D00020F00700854618B020B5FFF7DFFFBDE827
:1001E00020404FF000064FF000074FF000084FF09E
:1001F000000BAC46ACE8C009ACE8C009ACE8C009EB
:10020000ACE8C00921F007018D46704710B50446DF
:10021000AFF300802046BDE81040FFF7AABF000002
:10022000004870473000001001491820ABBEFEE7BF
:10023000260002007047000080B54CF20020C4F296
:1002400002000021016048F28000C2F20900012191
:1002500001608161642000F001F880BD0421C4F2D6
:10026000090102220A6001220A6000BF4A68824234
:10027000FCD300200860704748F20401C4F200017A
:1002800002220A6001220A604A688242FCD30020EE
:1002900008607047B0B548F29404C2F20904012521
:1002A000192044F8145C6560A560FFF7D7FF0020B3
:1002B000656044F8140C00BF2068C007FCD100BF83
:1002C0002068C007FCD000BF2068C007FCD140F206
:1002D000A0054FF0FF34C1F2000500BF00F042FA64
:1002E00029190134042C4870F8D1B0BD0808A0F5D4
:1002F00000114FEA3101704700000000FFFFFFFFCF
:100300004CF2C400C4F20F00016841F400410160E6
:10031000704700004CF2C400C4F20F00016841F0C5
:100320000401016048F20400C4F200000021C1662B
:100330001D21816002210160704700004CF2C40061
:10034000C4F20F00016841F4800101600420C4F28E
:1003500009000021C16647F22F518160022101602E
:10036000704700004CF2C400C4F20F00016841F075
:10037000080101604CF20800C4F20200016841F07B
:1003800001010160416841F0010141604CF20C0043
:10039000C4F2000083210170102100F80C1C002120
:1003A00000F8081C032101707047000010B54CF2E2
:1003B0000410C4F20F00016841F6003EC905C0F206
:1003C000B70E0FD48168C90703D0D0F89C10490636
:1003D0000CD50168C90644D0016801F01F01BEFBBD
:1003E000F1F23FE050F87C1CC9050BD440F2080143
:1003F000C1F2000100220A6040F20401C1F20001D2
:100400000A604CE08168C9077CD150F87C1C026806
:1004100001F01F0112F01F0201F1010CD0F8A4102D
:1004200050F8043C1ABF0CFB0EF4B4FBF2F20022AD
:1004300040F2080401F01F01C1F20004002922600B
:100440001ABF0CFB0EF4B4FBF1F1002103F0010321
:1004500040F204040133C1F20004B2FBF3F2216064
:100460001DE0002240F20801C1F200010A60D0F84C
:10047000A410C90606D0D0F8A41001F01F01BEFBDD
:10048000F1F100E0002140F20403C1F20003196021
:1004900050F8041C01F001010131B2FBF1F240F20D
:1004A0000001C1F200010A6042684168D20503D42C
:1004B000890514D400201FE041F0020101F01F0162
:1004C000062918D150F87C1C426801F01F0101FB7D
:1004D0000EE102F01F028068B1FBF2F00CE08168CF
:1004E000C9070CBF50F87C0C50F85C0C00F01F00E2
:1004F00000FB0EE000E0002040F20C01C1F2000120
:10050000086010BDD0F89C1049067FF56FAF50F819
:100510007C1C026801F01F0101F1010CD0F8A4104D
:1005200050F8044C12F01F0201F01F0304F0010107
:100530001ABF0CFB0EF4B4FBF2F2002240F20804E6
:10054000C1F200040131002B22601ABF0CFB0EF433
:10055000B4FBF3F3002340F20404B2FBF1F2C1F266
:10056000000423609BE7000080B54CF28C00C4F2CD
:100570000F002021C0F81411D0F814114906FBD542
:1005800001210922C0F8801040F8082C40F80C1C0A
:10059000AA2101605521016050F8041C4905FBD5D2
:1005A0002321816101214161AA210162552101625A
:1005B000C1694905FCD540F20111816740F2012172
:1005C000C167012141670221C0F828110421C0F848
:1005D0001C1148F2DE71C0F2284181634FF4807132
:1005E000C0F83C11D0F8241141F00301C0F82411E7
:1005F00045F23A0140F88C1C4EF60850CEF200004D
:1006000000210160FFF7D2FE80BD000010B5017827
:10061000002908BF10BD441EC8B200F005F8A1783B
:1006200001340029F8D110BD4CF20001C4F20001E0
:100630000A7D9206FCD508707047000010B544F69C
:10064000D352C1F26202A0FB022E4FEA9E1C4FF46D
:100650007A720CFB120048F21F52C5F2EB12A0FB9B
:1006600002244FEA541C64220CFB12004CF6CD42CB
:10067000CCF6CC42A0FB02234FF0300C0CEB9E12C8
:100680000A704CEA54124A70DA0802EB8202A0EBBC
:10069000420040F030004CEAD303C87000208B7059
:1006A000087110BDFFF72CFEFFF734FEFFF746FE82
:1006B000FFF758FEFFF7C0FD40F2A00749F69A1871
:1006C00049F6991940F2900646F2666A40F298049B
:1006D00040F210054FF4FA70C1F20007C9F69918FC
:1006E000C3F6F979C1F20006C4F2000AC1F20004AF
:1006F000C1F20005FFF7B2FDFFF7CCFD387800F03E
:10070000D2F942464B4600F047F800F09DF93146D9
:100710003870FFF793FFB87800F0C5F94FF06632F4
:10072000534600F039F800F08FF92146B870FFF712
:1007300085FF2846FFF76AFF3046FFF767FF09206D
:10074000FFF772FF2046FFF761FF0D20FFF76CFFF8
:100750000A20FFF769FF42F21070FFF77FFD4FF4A8
:100760007A70C7E770B548F294050024C2F2090513
:100770002868C007FCD02320FFF77EFD286800F022
:10078000010030432968C907FCD14600072C04F159
:100790000104EDD3F0B270BD2DE9C04130B4DFF8F3
:1007A000A0C23CEA111418BF3CEA131400F0EC801C
:1007B0001CEA111481EA030544EAD57418BF1CEA47
:1007C000131500F0C780A4EB050404F17F7404F551
:1007D00000344FF0004545EAC12145EAC32341EA10
:1007E000505143EA52534FEAC0204FEAC222994285
:1007F00008BF904200F09C804FEA13650FF240164C
:10080000765D4FEA134506FB05F7C7F1807706FBD7
:1008100007F74FEAD737A7FB03687642A7FB06CE58
:10082000C8F5803838BFA8F1010807FB08E6A6FB29
:10083000028C4FF0000EE6FB03CEDCF1000CCEF193
:10084000004E38BFAEF1010EA6FB0C584FF000076A
:10085000E6FB0E87A1FB08C6A0FB07CE16EB0E0633
:100860004FF0000545F10005E1FB076515F1E04E8D
:100870007EBFA4F580345FEA46066D4116F180071D
:1008800045F100054FEA172747EA05674FEA1525A6
:100890004FEA0666A6F1DE46B6F1805F1FD93846FC
:1008A00005EBC47124F0010C01EB0C11BCF1FE6FDF
:1008B00002D8F0BCBDE8008124425CBF01F5801E77
:1008C0009EEAC47F02D4F0BCBDE80081244238D443
:1008D000A1F1C041F0BCBDE80041FFF707BD4FEA00
:1008E000D02040EA41504FEAD1214FEAD22242EAD9
:1008F00043524FEAD323A7FB028607FB036605FB9F
:1009000002661EEA0E0F58BFA6EB0056B6EB005665
:100910004FEA520E4EEAC37E18EB0E0E56EB530E04
:10092000BDD518EB02085E417F1C55F10005B6E706
:100930004FF480154FF000074FF000064FF000080D
:10094000ADE701F1C04101F000414FF00000F0BC03
:10095000BDE800810CEA131511EA0C1F00D00CE071
:1009600013EA0C1F00F025804FF0000081EA03011C
:1009700001F00041F0BCBDE80081F0BCBDE80041E1
:1009800081EA0301FFF7B2BCF0BCBDE8004170B5DD
:1009900000F09CF8097EFC3E00F007B84FF0000024
:1009A00081EA030101F00041704781EA0301FFF78A
:1009B0009DBCF0BCBDE8004122494FF000007047EB
:1009C000FFFDFBF9F7F5F4F2F0EEEDEBE9E8E6E414
:1009D000E3E1E0DEDDDBDAD8D7D5D4D3D1D0CFCD9B
:1009E000CCCBCAC8C7C6C5C4C2C1C0BFBEBDBCBBD4
:1009F000BAB9B8B7B6B5B4B3B2B1B0AFAEADACABCF
:100A0000AAA9A8A8A7A6A5A4A3A3A2A1A09F9F9EA8
:100A10009D9C9C9B9A99999897979695959493935A
:100A2000929191908F8F8E8E8D8C8C8B8B8A8989F1
:100A30008888878786858584848383828281818074
:100A40000000FF070000F87F4FEA41034FEA5353CD
:100A5000A3F58063D3F11E03C8BFD3F1210C0CDDD5
:100A60004FF0004242EAC12242EA505232FA03FCFD
:100A70008CEAE17CACEBE1707047102BC4BF002026
:100A8000704703F5787CBCF1FF3F04D06FF0004263
:100A900082EA2100704770B500F018F8499224806E
:100AA00000207047F2E7B0FA80F310FA03F10AD0A1
:100AB000C3F11D0303F580634FEA03524FEA41502F
:100AC00002EBD12170474FF0000070470EF1020E8B
:100AD0002EF0030E5EF8046B364205D4012A43EB78
:100AE000030515F5001F12D8012841EB010C1CF578
:100AF000001F0CD80ED14FEAD17C0CEB4C0C0CF142
:100B0000020C15F5001F08BF4CEBD37C04E04FF03E
:100B1000080C01E04FEAD37C0CEB4C0526FA05F6F5
:100B200006F00706B6F1040C06D20EEB860CBDE803
:100B300070404CF0010C6047DFE80CF0090B02023A
:100B40004FF00041A1F500214FF0000070BD1946A3
:100B50001046012851EB010418BFD4F5001484BFDE
:100B6000002001F0004170BD880B00000000001063
:100B70003000000020010000B80B00003000001021
:100B8000780400003C0100000087930380C3C90182
:100B9000000E2707006CDC0248554D494449545962
:100BA00020262054454D5045524154555245202051
:080BB0002D2D202000000000A3
:04000005000000E512
:00000001FF
